:107800000C94343C0C94513C0C94513C0C94513CE1
:107810000C94513C0C94513C0C94513C0C94513CB4
:107820000C94513C0C94513C0C94513C0C94513CA4
:107830000C94513C0C94513C0C94513C0C94513C94
:107840000C94513C0C94513C0C94513C0C94513C84
:107850000C94513C0C94513C0C94513C0C94513C74
:107860000C94513C0C94513C11241FBECFEFD8E036
:10787000DEBFCDBF11E0A0E0B1E0E8E9FDE702C066
:1078800005900D92A230B107D9F712E0A2E0B1E065
:1078900001C01D92AD30B107E1F70E94FE3C0C948F
:1078A000CA3E0C94003C982F8091C00085FFFCCF0D
:1078B0009093C60008951F93982F9595959595954B
:1078C0009595905D8F708A301CF0182F195A02C060
:1078D000182F105D892FE7DF812FE5DF1F910895B5
:1078E000EF92FF920F931F93EE24FF24870113C0A2
:1078F0000894E11CF11C011D111D81E4E81682E4CD
:10790000F8068FE0080780E0180728F0E0910401EE
:10791000F091050109958091C00087FFE9CF809122
:10792000C6001F910F91FF90EF9008951F93D8DF2D
:10793000182FB9DF113614F0175503C010330CF0AF
:107940001053812F1F9108951F93F0DF182FEEDF42
:107950001295107F810F1F9108951F93182F02C059
:10796000BFDF11501123E1F71F9108951F93182FC6
:10797000B7DF803239F484E196DF812F94DF80E134
:1079800092DF0CC0809103018F5F809303018530EB
:1079900029F4E0910401F091050109951F910895E2
:1079A0009FDF803229F484E17EDF80E17CDF08956F
:1079B000809103018F5F80930301853029F4E0916A
:1079C0000401F09105010995089540E951E013C0C3
:1079D0002D9A28EE33E0FA013197F1F7215030402B
:1079E000D1F72D9828EE33E0FA013197F1F72150C5
:1079F0003040D1F78150882359F70895FF920F93B3
:107A00001F93CF93DF9394B714BE80916000886179
:107A10008093600010926000957061F0E0E0F0E00B
:107A2000859194918F5F9F4F29F0E0910401F0912F
:107A30000501099580E18093C4001092C50088E19A
:107A40008093C10086E08093C2005098589A259A8E
:107A500082E0BBDFFF24F39443DF8033A9F181335D
:107A6000A1F43EDF803209F087C184E11CDF81E4AC
:107A70001ADF86E518DF82E516DF80E214DF89E48D
:107A800012DF83E510DF80E510C1803429F428DFA0
:107A90008638D0F025DF18C0813491F421DF80389A
:107AA00011F482E067C1813811F481E063C182384A
:107AB00011F480E15FC1883909F05BC183E05AC1EC
:107AC000823421F484E149DF6BDFC6CF853411F4C1
:107AD00085E0F9CF8035C1F38235B1F38135A1F36B
:107AE000853539F4FDDE80930601FADE80930701C7
:107AF000EBCF8635A1F4F4DE803371F4F1DEF0DEF5
:107B0000182FEEDE112311F48EE134C1113011F47F
:107B100085E930C18FE02EC183E01FDF2AC18436A2
:107B200009F0C7C0DDDE80930902DADE8093080227
:107B300080910C028E7F80930C02D2DE853429F472
:107B400080910C02816080930C0200E010E007C07D
:107B5000C7DEF801E85FFE4F80830F5F1F4F809103
:107B60000802909109020817190790F3B9DE8032D4
:107B700009F002C180910C0280FF2BC02091060108
:107B800030910701220F331F309307012093060124
:107B9000609108027091090240E050E010C0F9992C
:107BA000FECFCA01820F931F92BD81BDFA01E85F2B
:107BB000FE4F808180BDFA9AF99A4F5F5F4F46175A
:107BC000570768F3260F371F3093070120930601EC
:107BD0006BC0809107018823880F880B8F218093C9
:107BE0000B028091060190910701880F991F9093D5
:107BF0000701809306018091080280FF09C08091EF
:107C0000080290910902019690930902809308025C
:107C1000F894F999FECF1127E0910601F091070140
:107C2000C8E0D1E08091080290910902103091F4EF
:107C30000091570001700130D9F303E00093570021
:107C4000E8950091570001700130D9F301E10093EC
:107C50005700E89509901990009157000170013084
:107C6000D9F301E000935700E8951395103498F08C
:107C700011270091570001700130D9F305E00093FE
:107C80005700E8950091570001700130D9F301E1E8
:107C900000935700E8953296029709F0C7CF10304D
:107CA00011F00296E5CF112484E1FDDD80E1FBDDDA
:107CB000D3CE843709F04EC013DE8093090210DE64
:107CC000809308028091060190910701880F991F07
:107CD000909307018093060103DE90910C02853496
:107CE00011F4916001C09E7F90930C02F9DD803207
:107CF00009F0B2CE84E1D7DD00E010E023C080912E
:107D00000C0280FF0BC0F999FECF80910601909183
:107D1000070192BD81BDF89A80B508C081FD07C0FA
:107D2000E0910601F0910701E4918E2FBCDD809176
:107D30000601909107010196909307018093060137
:107D40000F5F1F4F809108029091090208171907D1
:107D5000B0F2ACCF853759F4C3DD803269F484E1E9
:107D6000A2DD8EE1A0DD85E99EDD8FE09ECF863726
:107D700019F480E0FBDD70CE809103018F5F80936A
:107D80000301853009F068CEE0910401F09105010E
:087D9000099562CEF894FFCFC3
:027D9800800069
:040000030000780081
:00000001FF
